S02700005239413032473032315F77616D725F696E746572705F666173745F6D696E692E73726563D5
S214000000971100009381018017710020130141FFB2
S2140000100A84EF600145EF60413017550020130554
S214000020A5F7175600201306E65D098E8145EF10EA
S2140000303015174500201305E5FC9705000093854D
S214000040657D17160000130626F5EF504055170578
S2140000500020130525FB971500009385E574170609
S2140000600000130626FAEF508053EF60213717057D
S2140000700000130525F911C517050000130585F8BE
S2140000800120EF90C01B014581450146EF80C13A33
S2080000906F90B06D4B
S214000408FFFFFFFFFFFFFFFFFFFFFFFFFFFFFFFFEF
S214000418FCFF0F00FFFF0F00FFFFFFFFFFFFFFFFC0
S214000428FFFFFFFFFFFFFFFFFFFFFFFFFFFFFFFFCF
S208000438FFFFFFFFBF
S214000800FFFFFFFFFFFFFFFFFFFFFFFFFFFFFFFFF3
S2140008109041002000000200FFFFFFFFA417000029
S214000820A4170000A4170000A4170000A4170000D7
S2140008304300000000000000000000000000000070
S21400084000000000000000000000000000000000A3
S2140008504300000000000000000000000000000050
S2140008600000000000000000000000000000000083
S2140008704300000000000000000000000000000030
S2140008800000000000000000000000000000000063
S2140008904300000000000000000000000000000010
S2140008A00000000000000000000000000000000043
S2140008B043000000000000000000000000000000F0
S2140008C00000000000000000000000000000000023
S2140008D043000000000000000000000000000000D0
S2140008E00000000000000000000000000000000003
S2140008F043000000000000000000000000000000B0
S21400090000000000000000000000000000000000E2
S214000910B89000006266000000000000A0A0010081
S214000920C08A0100C28A0100C28A0100C28A010090
S214000930C28A0100C28A0100C28A0100C28A01007E
S214000940C28A0100C28A0100FFFFFFFFFFFFFFFF10
S214000950FFFFFFFFFFFF000001004153434949002E
S2140009600000000000000000000000000000000082
S2140009700000000000000000000041534349490009
S2140009800000000000000000000000000000000062
S2140009900000000000000000000000000000000052
S2140009A0000000000050002068500020D0500020BA
S2140009B00000000000000000000000000000000032
S2140009C00000000000000000000000000000000022
S2140009D00000000000000000000000000000000012
S2140009E00000000000000000000000000000000002
S2140009F000000000000000000000000000000000F2
S214000A0000000000000000000000000000000000E1
S214000A1000000000000000000000000000000000D1
S214000A2000000000000000000000000000000000C1
S214000A3000000000000000000100000000000000B0
S214000A400E33CDAB34126DE6ECDE05000B00000075
S214000A500000000000000000000000000000000091
S214000A600000000000000000000000000000000081
S214000A700000000000000000000000000000000071
S214000A800000000000000000000000000000000061
S214000A900000000000000000000000000000000051
S214000AA00000000000000000000000000000000041
S214000AB00000000000000000000000000000000031
S214000AC00000000000000000B0420020B0420020FD
S214000AD0B8420020B8420020C0420020C042002099
S214000AE0C8420020C8420020D0420020D042002049
S214000AF0D8420020D8420020E0420020E0420020F9
S214000B00E8420020E8420020F0420020F0420020A8
S214000B10F8420020F8420020004300200043002056
S214000B200843002008430020104300201043002004
S214000B3018430020184300202043002020430020B4
S214000B402843002028430020304300203043002064
S214000B503843002038430020404300204043002014
S214000B6048430020484300205043002050430020C4
S214000B705843002058430020604300206043002074
S214000B806843002068430020704300207043002024
S214000B9078430020784300208043002080430020D4
S214000BA08843002088430020904300209043002084
S214000BB09843002098430020A0430020A043002034
S214000BC0A8430020A8430020B0430020B0430020E4
S214000BD0B8430020B8430020C0430020C043002094
S214000BE0C8430020C8430020D0430020D043002044
S214000BF0D8430020D8430020E0430020E0430020F4
S214000C00E8430020E8430020F0430020F0430020A3
S214000C10F8430020F8430020004400200044002051
S214000C2008440020084400201044002010440020FF
S214000C3018440020184400202044002020440020AF
S214000C40284400202844002030440020304400205F
S214000C50384400203844002040440020404400200F
S214000C6048440020484400205044002050440020BF
S214000C70584400205844002060440020604400206F
S214000C80684400206844002070440020704400201F
S214000C9078440020784400208044002080440020CF
S214000CA0884400208844002090440020904400207F
S214000CB09844002098440020A0440020A04400202F
S214000CC0A8440020A8440020B0440020B0440020DF
S214000CD0B8440020B8440020C0440020C04400208F
S214000CE0C8440020C8440020D0440020D04400203F
S214000CF0D8440020D8440020E0440020E0440020EF
S214000D00E8440020E8440020F0440020F04400209E
S214000D10F8440020F844002000450020004500204C
S214000D2008450020084500201045002010450020FA
S214000D3018450020184500202045002020450020AA
S214000D40284500202845002030450020304500205A
S214000D50384500203845002040450020404500200A
S214000D6048450020484500205045002050450020BA
S214000D70584500205845002060450020604500206A
S214000D80684500206845002070450020704500201A
S214000D9078450020784500208045002080450020CA
S214000DA0884500208845002090450020904500207A
S214000DB09845002098450020A0450020A04500202A
S214000DC0A8450020A8450020B0450020B0450020DA
S214000DD0B8450020B8450020C0450020C04500208A
S214000DE0C8450020C8450020D0450020D04500203A
S214000DF0D8450020D8450020E0450020E0450020EA
S214000E00E8450020E8450020F0450020F045002099
S214000E10F8450020F8450020004600200046002047
S214000E2008460020084600201046002010460020F5
S214000E3018460020184600202046002020460020A5
S214000E402846002028460020304600203046002055
S214000E503846002038460020404600204046002005
S214000E6048460020484600205046002050460020B5
S214000E705846002058460020604600206046002065
S214000E806846002068460020704600207046002015
S214000E9078460020784600208046002080460020C5
S214000EA08846002088460020904600209046002075
S214000EB09846002098460020A0460020A046002025
S214000EC0A8460020A84600200000000003000000FE
S214000ED000500020AE98010078E500004890010020
S214000EE000000000C6880100D4E50000559301000C
S214000EF000000000798B010050E60000928C010093
S214000F0000000000F58A010078E500004890010026
S214000F100000000052960100D4E500005593010041
S214000F2000000000948F010050E60000928C010043
S214000F3000000000858D0100AEE60000308901004B
S214000F4000000000FB990100B8E60000828B01005B
S214000F5000000000FA900100CEE600001A920100A0
S214000F6000000000878B0100F8E600001A920100DE
S214000F7000000000039A010042E700001A920100F8
S214000F80000000004E9001007CE70000CA8C0100C3
S214000F900000000021920100B2E70000019101006C
S214000FA00000000088950100D6E70000838F01004E
S214000FB0000000008A8D0100DEE700002A8A01009A
S214000FC000000000908E010020E80000308901003B
S214000FD000000000918A010026E800001A92010035
S214000FE000000000B598010050E800001A920100C9
S214000FF0000000001290010088E80000828B0100CB
S21400100000000000C08901009CE800008C900100F0
S21400101000000000CE880100FEE800008C90010071
S214001020000000005C93010046E9000030890100E2
S21400103000000000C699010092E900003089010016
S21400104000000000AB8C010094E90000998A0100C2
S214001050000000009D8A0100D4E9000030890100EC
S214001060000000000B9A0100DAE90000918D0100F3
S214001070000000002892010006EA00002F920100FE
S21400108000000000898F010040EA00002F92010056
S214001090000000003E9101007AEA0000CA8C0100C0
S2140010A000000000308A0100B6EA0000CE99010078
S2140010B0000000003C8A0100C0EA0000838F0100A7
S2140010C000000000958D0100C8EA0000838F010033
S2140010D000000000C0960100D0EA0000838F0100E7
S2140010E00000000049870100F4EA0000828B01003E
S2140010F000000000978E010002EB0000828B0100CA
S214001100000000005B9601000AEB0000828B0100E5
S214001110000000000791010012EB0000828B010026
S214001120000000009A8C01001AEB0000828B010080
S214001130000000001D88010024EB0000828B0100E7
S21400114000000000A28A01002CEB0000828B010048
S21400115000000000D588010036EB0000828B0100FD
S214001160000000008E8B010048EB0000828B01001F
S21400117000000000D59901005CEB0000828B0100A6
S21400118000000000E892010064EB00001A920100E3
S2140011900000000092900100AEEB0000918D01006F
S2140011A000000000438A0100DAEB0000918D010088
S2140011B0000000008F95010006EC0000918D0100F4
S2140011C0000000007C99010032EC0000828B0100D8
S2140011D0000000002588010046EC0000998A010006
S2140011E000000000FD8A010048EC00009890010015
S2140011F0000000000F91010070EC0000109A010042
S214001200000000009A950100A0EC00007F94010009
S2140012100000000036F10000F0130100F01301009A
S214001220F013010048F100000C020100F013010069
S214001230F0130100F0130100F0130100F013010099
S214001240F01301000A020100E0020100780001002C
S2140012505E010100B40201006EFE0000F013010002
S214001260F0130100F0130100F0130100F013010069
S214001270F0130100F0130100F0130100F013010059
S214001280B2030100F013010030FC000076F8000005
S2140012904A090100F01301000008010000080100DF
S2140012A01EF70000F0F90000F0130100F013010033
S2140012B0F0130100EC04010076060100F0130100B3
S2140012C0F01301006A050100760D01001AFA00000D
S2140012D0A00701001CF800009E040100700A01002F
S2140012E024FB0000B2FB00006CFD00009A09010020
S2140012F078080100F0130100F0130100BCF80000AC
S2140013007A100100BCF800007A1001009A0901006A
S21400131048070100400B010048110100FCF40000E2
S21400132048110100FCF40000DE0C0100920E0100E2
S2140013302A0901007AFA00004E0F0100E8F20000C8
S2140013407611010016FE0000300A01001AFD0000AA
S214001350520E0100AE0501001C1101001E0701001F
S2140013602E0D01009AF6000008F30000D0F40000ED
S2140013705A0201007AF300002A100100BE0D010097
S214001380B20E010058100100581201008EF4000041
S214001390C6F60000A2F80000E0F600005AF30000CF
S2140013A0580D010014F6000078FC00008AFB0000CF
S2140013B034F300000EFC000000FB00003C120100AD
S2140013C060F40000AE0F0100ACF20000DE0A01007F
S2140013D0CC0F01009AFA000000F700004404010058
S2140013E018F4000092120100A6F300003AFD000077
S2140013F0D4120100220B01006204010036FE000038
S21400140070030100CA050100F2090100F40C010096
S214001410000E01004E0A0100E603010078F6000007
S214001420240F0100A8F4000044F700005AF500005D
S214001430860F010036F40000C6F30000D40E01004B
S2140014400E130100F01001003CF600007EF40000D0
S214001450F6050100C6FD00000A1101006A0701003A
S2140014606C0F0100B8F900004CF60000A0FC00006C
S214001470D21101009E0C0100C40C0100B411010041
S2140014809CF9000094110100840701005CFC000038
S214001490D4F90000FCF8000024F900004CF9000024
S2140014A074F900006CF7000084F500007AF2000082
S2140014B0C0FA0000780E010006F80000E40D0100F6
S2140014C0B012010008060100F21201002006010019
S2140014D038060100D0FA0000FCFD000068F60000A7
S2140014E0180901008A0C010006FD0000D8FD000066
S2140014F0A2030100040B0100ECFA0000E009010061
S214001500200A0100C0FA000050050100C0FA0000E1
S214001510500501005AFD00003E050100ECFD0000EC
S2140015205806010008060100F01301003803010008
S214001530F0130100D6020100500201005002010023
S214001540D60201008C0201005005010016020100BF
S21400155082020100F0130100F0130100F0130100F5
S214001560F0130100F0130100F0130100F013010066
S214001570F0130100F0130100F0130100F013010056
S214001580F013010000000000000000000000000052
S2140015900000000000000000000000000000000046
S2140015A00000000000000000000000000000000036
S2140015B00000000000000000000000000000000026
S2140015C00000000000000000000000000000000016
S2140015D00000000000000000000000000000000006
S2140015E000000000000000000000000000000000F6
S2140015F000000000000000000000000000000000E6
S214001600F01301008AF1000000000000F013010052
S214001610000000000061736D010000000109026017
S214001620017F017F600000020C0103656E76047086
S214001630757473000003020101050301000106131F
S214001640037F014180010B7F004197010B7F004122
S214001650A0010B072C04066D656D6F7279020004FD
S2140016606D61696E00010A5F5F646174615F656E3B
S2140016706403010B5F5F686561705F626173650399
S214001680020A34013201047F4180818080002100FB
S21400169041062101200020016A21024180818080CC
S2140016A000210320031080808080001A2002108012
S2140016B0808080001A0F0B0B1E01004180010B1763
S2140016C048656C6C6F20576F726C642046726F6D45
S2140016D0205275737421000040046E616D65000A27
S2140016E0096D61696E2E7761736D010D02000470DD
S2140016F075747301046D61696E071201000F5F5FF8
S214001700737461636B5F706F696E746572090A014A
S21400171000072E726F64617461003D0970726F6419
S2140017207563657273010C70726F636573736564BD
S2140017302D6279010572757374631D312E38352E4E
S21400174030202834643931646534653420323032D0
S214001750352D30322D31372900490F746172676597
S214001760745F6665617475726573042B0A6D756CBB
S214001770746976616C75652B0F6D757461626C6546
S2140017802D676C6F62616C732B0F72656665726590
S2140017906E63652D74797065732B087369676E2D9B
S2080017A065787400EF
S2140017A4611122C006C20A84AA822E83B28303254C
S2140017B4030083254300032683008326C3000327F0
S2140017C4030183274301032883018328C3011303EA
S2140017D4030263860302139E23003301C1413D4E78
S2140017E4134EFEFF3371C1018A8E638A0300032FF2
S2140017F4030023A0EE011103910EFD13FDB78292A0
S21400180422810244924021018280B70210003205F0
S2140018141305353312050D0523A0A200FD52370328
S21400182400E6232653002322A30023245300232068
S214001834A3008280FD52370300E6210323205300D1
S2140018442322B3002320A3008280370300E68325E7
S21400185443000325030082807D157DFD8280336767
S214001864B500FD530D8B79E7B7877F7F9387F7F72E
S21400187410419441B372F6003363F600BE92B3E2AD
S21400188462006397720C6318D6065041D441B37253
S214001894F6003363F600BE92B3E262006398720AFF
S2140018A4631BD60410459445B372F6003363F60002
S2140018B4BE92B3E262006391720A631ED60250457A
S2140018C4D445B372F6003363F600BE92B3E2620008
S2140018D4639A72086311D60210499449B372F600EB
S2140018E43363F600BE92B3E2620063937208510556
S2140018F4D105E30FD6F61317060193970601631C6A
S214001904F7001357060193D706013305F74093757E
S214001914F50F91E982804183C1833305F7409375BF
S214001924F50F91E182801377F70F93F7F70F3305DE
S214001934F74082800346050083C605000505850535
S2140019446313D60065FA3305D640828011059105E7
S214001954E312D6FE014582802105A105E31CD6FCD0
S214001964014582803105B105E316D6FC0145828027
S2140019744105C105E310D6FC014582803D432A8714
S2140019846373C3029377F700BDEFADE5937606FF66
S2140019943D8ABA960CC34CC30CC74CC74107E36BCD
S2140019A4D7FE11E28280B306C3408A06970200007F
S2140019B496966780A6002307B700A306B7002306FB
S2140019C4B700A305B7002305B700A304B700230494
S2140019D4B700A303B7002303B700A302B70023028C
S2140019E4B700A301B7002301B700A300B700230084
S2140019F4B700828093F5F50F93968500D58D939660
S214001A040501D58D61B79396270097020000969638
S214001A148682E78086FA9680C1171D8F3E96E37409
S214001A24C3F8A5B791466365D604B3E6A5008D8AC8
S214001A3485EEB706010193820610B78680809387E9
S214001A4406080D48AA889841B386E240D98EFD8ED2
S214001A546393F602711691059386480023A0E80066
S214001A64B688E362C8FE11A0AA86B68809E625A849
S214001A74AA86B6880DCA0548B282468783C705007B
S214001A849686FD122300F700050781C78505E397B0
S214001A9406FF638A02004696930517002300070094
S214001AA42E87E39BC5FE8280197186DEA2DCA6DA49
S214001AB4374700200324070063CF0502AE84C175B0
S214001AC4938585202ECC82D82AC62ACE054533F5A2
S214001AD4A40A7D152ACA2AD06C002285EF20A0739A
S214001AE4F95563C5A5009305B0080CC089C8B2456E
S214001AF42380050029A01305B00808C07D55F650BC
S214001B046654D65409618280197186DEA2DCA6DA90
S214001B14AA846341060432844175130585202ACCC1
S214001B2482D82EC62ECE05453375A60A7D152ACA3A
S214001B342AD06C0026853686BA86EF20C06DF95505
S214001B4463C5A5009305B0088CC009C8B2452380B8
S214001B54050029A01305B00888C07D55F6506654C4
S214001B64D6540961828029C637A801001308180ACA
S214001B7483480500B307180183C7070083C605001A
S214001B848D8BFD173307D8000347070093B717005C
S214001B949607C6970D8B7D171337170016073697CB
S214001BA4B386E74019C791E685057D16050569F2F3
S214001BB4814636858280357106CF22CD26CB4AC92A
S214001BC44EC752C556C35AC1DEDEE2DCE6DAEAD8B0
S214001BD4EED6368A3289AE8402C2B30DC040B365EF
S214001BE4C50013FD350093454600B365BD0013BB21
S214001BF4150093552600930C1600854B3346760B3A
S214001C04B389CC401376C9FFB3D6750B8A06158EF6
S214001C14110632D085052ED29D426AD466C64ECAB7
S214001C24AA8A63E0544E13D514003304250356944D
S214001C34938CF4FF26CE6382541433852C03569576
S214001C442ACC1305900266C463EFA40213D53400AD
S214001C54B3092503B3843A0133AC59215685A685C6
S214001C64029AAA8C268562C8E285029A63C00C0290
S214001C746347A0025685424CE285029AD6846340A6
S214001C840502E28429A85685624C45A863490500E6
S214001C945685C244A685029A63430500D68426C8A0
S214001CA4330C3441B30C34016285A285029AAA84AB
S214001CB42285E685029A63CC04006343A00262850B
S214001CC4E685029A63430500668C628411A863491C
S214001CD405006285E685029A63430500E28C668405
S214001CE413951900330C3041E2443385A440269CF6
S214001CF42AC0E285029AAA8C6285A685029A63CFD8
S214001D040C00D249634AA002024C6285E244A685CE
S214001D14029AC24563400502268C29A8D249634D1F
S214001D24050082442685E245029AC24563430500BF
S214001D3426CC624C2E8511A042452AC8A285029A5A
S214001D44AA8C228562CCE285029A63CD0C00A24C52
S214001D546345A00242442285624CE285029A635D92
S214001D64050021A8A24C634A0500424C62856244E1
S214001D74A285029A63430500628463090B00084047
S214001D8483A50A0023A0AA000CC0A1A063040D0228
S214001D9433053401D6850346040083C60500238034
S214001DA4C5008505130614002300D4003284E3140A
S214001DB4A6FE05A002555695D68510409441138775
S214001DC4450090C19305440014C02E84BA85E316DA
S214001DD4A7FE338C2A01B38C2C03D69C014DE684D3
S214001DE4628462CC63F98C0FB9A203A50C008C4004
S214001DF488C023A0BC00EE9C054DEE9463EF8412CD
S214001E042685D685029A6349050465F9E31F0BFC0B
S214001E14225505C533853C01A6856686834606009D
S214001E2403C705002380D500850593061600230006
S214001E34E6003686E394A6FE7DBF02556695E685E3
S214001E4426869441184214C211069386450098C10A
S214001E54B685E398A6FE45B763070B0088400C409A
S214001E6408C08CC081A8225515C533053401A28547
S214001E7426868346060003C705009387150023803D
S214001E84D500930616002300E600BE853686E39248
S214001E94A7FE0DA002552295A685228694411842D7
S214001EA49307460014C21386450098C1B2853E8641
S214001EB4E396A7FE4A94EE94054D63FE8400A5A817
S214001EC4084083250C002320AC000CC04A9C054D1A
S214001ED44A9463E284062285D685029A634DA0045A
S214001EE465F9E31F0BFC225515C533053C01E28555
S214001EF422868346060003C70500938715002380C1
S214001F04D500930616002300E600BE853686E392C7
S214001F14A7FE6DBF02556295A2856286944118425B
S214001F249307460014C21386450098C1B2853E86C0
S214001F34E396A7FE61BFE3F584EC7245B308250378
S214001F44B3891A0163030D1233065C4133088441D6
S214001F54B346060B225DA5C23306D44063070D02C2
S214001F64B3C6760BB306D4408506568703450600EB
S214001F74834507002300A700050713051600230062
S214001F84B6002A86E314D5FE3DA013D72600F19AA0
S214001F943357770B0A07D696998E910656871C42B6
S214001FA40C43130547001CC3130746000CC23A86AD
S214001FB42A87E316D5FE33869C40CA9C338599410E
S214001FC43357A60AB24C9D4225C3B386E94063073D
S214001FD40D023345770BD6983385A840050583C58F
S214001FE40600034704002300B40005049385160086
S214001FF42380E600AE86E394A5FE3DA01355270095
S214002004719B3355750B0A0522973305A7401105B6
S2140020148C421840930744000CC09385460098C22F
S214002024AE863E84E396A7FEB386C9406364C800C2
S214002034368519A05685B68AB356060B3374060B36
S214002044637CD900B3D426039245D24963FDB20813
S214002054A6854A86D286853663758912B3542403C8
S214002064D2499D42E3F154BC69A8225DB24C624C4D
S2140020746346190139A24A9C63753C11E3FD8AFF45
S214002084628439A008408C4088C00CC0E3F58AFE00
S214002094A2846E942285A685029AE35EA0FCE313CE
S2140020A40BFE63040D026685A28503C6050083C67F
S2140020B404002380C4008504138615007D15238040
S2140020C4D500B285E3C3ABFED1B71255A2859041C5
S2140020D4944090C09104138645007D1594C1B28542
S2140020E4E3E7ABFE65B792466C10B3E5B62023A0D3
S2140020F4550133562403D0C1850636C2AA8AE3F4B2
S21400210454B2B3892403635E3907D699338C2A0103
S21400211421A04A9C63773C07E3FD8AFF628439A0CA
S21400212408408C4088C00CC0E3F58AFEA2846E94F6
S2140021342285A685029AE35EA0FCE3130BFE6304E5
S2140021440D026685A28503C6050083C604002380A7
S214002154C4008504138615007D152380D500B2853A
S214002164E3C3ABFED1B71255A2859041944090C00C
S2140021749104138645007D1594C1B285E3E7ABFE52
S21400218465B71245D24909CD7D152AC26C10B365D0
S214002194B5208841C4419D42AA8AE3F654A895B75F
S2140021A4FA406A44DA444A49BA492A4A9A4A0A4BDD
S2140021B4F65B665CD65C465DB65D0D618280357105
S2140021C406CF22CD26CB4AC94EC752C556C35AC1DE
S2140021D4DEDEE2DCE6DAEAD8EED63688B28D2A8986
S2140021E482D01384150015451306A0029306000238
S2140021F411A005048344F4FF138774FFE36BA7FE62
S21400220463479600E387D4FE638B041CA5A01305DE
S214002214B0026388A4001305D002639DA404054D90
S21400222411A0014D83440400A2D2638A041A130544
S21400223400036398A40403451400136505021306FB
S21400224480070504631DC50C37A60100130686B077
S214002254CC10B41098104A85EA87EF30A0439374E4
S214002264F500E9C89945639AB40C0145814C014DC3
S214002274A2D295AA014D7D14A2D213050003E38CC5
S214002284A4FACAC6268C13050CFD25466364A60468
S2140022940149814A81462145294625A033472921FB
S2140022A433278721130907FD3307D400034C17008F
S2140022B4938B1600050793070CFDBAD2DE8663F1EE
S2140022C4C702E36DD5FC33C75A2133278721930A07
S2140022D407FDD9BFAE8C814B814A0149228B21A0D0
S2140022E4AE8C330B7401B7950100938505AC054697
S2140022F45A85EF40A03811C5814981485E8AE68533
S214002304C9A0034C1B0093071B00BED2638E0B06AA
S214002314814281485E8A2288E6856F00D041CAC61B
S21400232413050003034C0400A2D20504E30CACFE20
S214002334631A0C040145814C7DA0065601CE2A84FE
S214002344A80893055003EF10104686554A85EF00FB
S21400235430662285FD14914563E69524B785010011
S21400236493858572B3C5B4208C4182857646A6567D
S214002374E64513164649D20637073043BA96B36C79
S214002384D6001DA47D1401B713060003E68581421A
S214002394631CCC00090BB3065B0003CC0600850265
S2140023A4B6D2E30ACCFE96971306FCFCA5468143F8
S2140023B4814E014A81493E833E883E8B9688E36679
S2140023C4D6381376FC0D930650046316D60413060B
S2140023D40003638FC40A631D0A0A639B080A014547
S2140023E4814C014DAED263850D00965523A0BD00E9
S2140023F49315FD01B3C5BC00FA406A44DA444A4961
S214002404BA492A4A9A4A0A4BF65B665CD65C465D2B
S214002414B65D0D618280EAC4014D63060A1EEEC0F5
S214002424D28463830B00DE84330B3D414145B34BBA
S214002434AA0A5685EF90D00B2946AE8C26DE634555
S214002444CA0EB7A50100938585B6B3E5BB20DE8426
S21400245483AB85FB03ACC5FBE68DAA8C4A85EF905F
S21400246430092A895ADA2E8B5E85A68BE285668623
S214002474EE86EF90900C4A86DA86525BEF80501018
S2140024843D46AE8C364C636D46258545D5E189AC14
S214002494034C1B00014893021B009305B00296D21E
S2140024A46307BC009305D0026318BC000548034CC0
S2140024B42B0093022B0096D293050CFDA546EAC486
S2140024C463EDB60693050003631CBC001386120076
S2140024D4034C0600B2D20506E30CBCFE9302F6FFDC
S2140024E49305FCFCA14663EEB60683C61200130DE4
S2140024F40CFD93851200138706FDA547AED263EA4A
S214002504E70C93872200A9453347AD213327D7200C
S21400251483C60700130D07FDBED2138606FD850786
S214002524E364B6FEF91745A8364C8545638A051A52
S21400253463183D01864D264D7DB5014DDAD2C9A0FE
S21400254463536003D945264D63E66519B7A50100B4
S214002554938585B6B365BB209041D441E6856F006C
S214002564E07D014D71A8A955636CBB1693153B001D
S21400257437A60100130686B6B305B6409041D4418B
S214002584E685EF80F07CAE8C75B7FD553706008087
S214002594930CF6FF11A8E645F64C39A08145B70C16
S2140025A4F07F19A08145814C1375051019C1939CC1
S2140025B4FC292E85B705F07FB3F5BC00E39505E24C
S2140025C42A84EF402013AA8522851306200290C190
S2140025D419BD96876287368CB3855740850593A5C3
S2140025E4950013C6150095659386F5E4B3A6E60034
S2140025F4558E19C2138DF5E163040800330DA0410E
S214002604DA85E31E0AE09306000301466387D402D4
S214002614264D63910802E30405DC13058006634235
S2140026248503130590046306AC021305E004630EE9
S214002634AC0475B33285B28C7DB33285B28C264D2C
S2140026445DB31305E0066302AC0413059006E318B5
S214002654ACD83796010013065621C8102E84B285CE
S214002664EF70F04CA285E30C05D616557D15AAD25C
S214002674B79501009385C564C810EF70504BB70C2E
S214002684F07F6303056C0145B9BB37A6010013064A
S214002694369CC8102E84B285EF707049A285E3007C
S2140026A405D416550345050093058002631BB560E3
S2140026B4B7A501009385C5B1C8109008EF70F0491E
S2140026C495456310B560D64546453706F07FB3ECAE
S2140026D4C50011BB93055002B385454163DC6563B1
S2140026E4B3097A41DA99635D300793F5F90089CD29
S2140026F437A60100130686B6B3E5C5209041D4413B
S214002704E685EF908063AE8C864D264DAAC213F5FF
S21400271409FF1315F54979C1930550136370B5582D
S2140027245ADA13050002B7A40100938404C363EFC6
S214002734A952014B93D549008D492689164539A0DF
S214002744050B93D51B00A10463F57953AE8B8589DD
S214002754E5D99040D440E685EF90205EAE8CCDB7A8
S21400276463C70900AAC202DC864D264D8DA833092C
S21400277430419375F900864D264D89CD37A6010064
S214002784130686B6B3E5C5209041D441E685EF80AE
S214002794305CAE8CAAC293544900A9C01305F01F3E
S2140027A4636E256F133509107D151375A5062ADC8F
S2140027B4B7A90100938909B3164529A08580A10904
S2140027C46380045293F51400F5D903A6090083A682
S2140027D44900E685EF906056AE8CCDB702DC628584
S2140027E4A2857256D2865687EF00B02F6308054A34
S2140027F42A844C416285EF001016AA8A3705F07FBA
S2140028042ADA63890A4210489305C4001385CA006D
S2140028140A0621062ECEEF205058B408B81062855A
S21400282496456686EF10C047AAD0630505402A89F8
S214002834E6C0014A330560419355FB413376BB40FD
S214002844B3F4A500625532D032952AD2370510006B
S2140028547D152ACA3705F07F2ADA3735A094130582
S21400286455592ACC3705D03F7D152AC637E5AF35EE
S214002874130555532AC43705E0417D152AC826DEBC
S214002884E2C622D485456285EF00F045630A054C0E
S214002894AA8C66442655E255B305B440AA95130699
S2140028A46003330BA6408549130520C06341B50277
S2140028B4130530C00D8D330BAB40130640BE63ECDE
S2140028C4C500B319A02802D6634F9000A1A002D673
S2140028D4634B900081A0130530BE0D8DB315A02860
S2140028E42ED6635990026285E6852686EF00D0626E
S2140028F463000546AA8C6285E6854A86EF00B045E5
S2140029046306054CAA846285CA85EF00700AA6D0C1
S2140029142689F2541355F441B3758500B37BA4405D
S214002924A69B33067B0112545A940D8C3345740BC4
S2140029343345A60AB364050A058E6359C00062854A
S214002944CA85EF00B06CAAD06302054802566359E4
S214002954C0006285D685EF00305CAA8A630E053E09
S214002964330694406359C0006285D685EF00106A2A
S214002974AA8A6303053E33869B406359C00062857A
S214002984E685EF00B068AA8C6304053C865562852C
S2140029945686EF00907F6308053C2A8A0329C50003
S2140029A423260500E685EF00507A6342053C63065D
S2140029B4053C5285E685EF102055AA842E84B7067A
S2140029C400400146EF80301B52D8635EA002B70673
S2140029D4E03F2685A2850146EF902036AA8BAE8975
S2140029E4133519007E05B3C4A500B706E03F5E851F
S2140029F4A6850146EF80C0382A8A2E8C054501CD6F
S214002A04268C5E8A09A8B709F03F63050914814B32
S214002A14014A370CF03F164B4ED606443705F07F76
S214002A24B379A4003705E07F639DA904B704B0FC1E
S214002A34A2945A85A685EF10C0112A86AE865285C2
S214002A44E285EF90802F5A86A686EF806033139631
S214002A54150059829306503E636ED6083705F07FFC
S214002A649305F5FF3346B40016453366A6407D55F8
S214002A74AAC2AEC0364C2254425AF254631F061001
S214002A84C5AE625531C53705A006636335053706FE
S214002A94C0FF5E853254A285C246EF80D00D6343E4
S214002AA4A0025E85A285EF90001785453375B50AAA
S214002AB4EF900024AA8B133519007E052ED633CC4E
S214002AC4A5005E8A164B330C3C413705B0062A9C9B
S214002AD45A850644A285EF10C0072A86AE8652851C
S214002AE4E285EF9080252A86AE865A85A285EF80F9
S214002AF4202921A037065003B295AEC0364CF254B6
S214002B04E255AAC2A9E50645B705F07F6D8D639028
S214002B14A9045E853254A285EF80707FEF90C014BE
S214002B242A86AE865E85A285EF90A06863110904A6
S214002B34164615EE0646D246758E15EA6246B24627
S214002B44EF8070032254425A63590504EDA82254B8
S214002B54425AA1A0164B63080B08370CF0BF064573
S214002B6459E9814B014A0545E318ABEA6DA6B70659
S214002B74E03FFD16AA842E896246EF80C07F225469
S214002B84425A6342050CB706E03F2685CA852246AC
S214002B94EF809007F2546348A00A86556285092D93
S214002BA46285D68531256285E68519256285D285B6
S214002BB401254C4062854523630D0520AA8A0C48EE
S214002BC431058A0513868500F245EF20101DB408EA
S214002BD4B810628596450646EF10800C2A89AAD05E
S214002BE4E31205CAD5AA0645320509C9814B014A2E
S214002BF4370CF0BF15B5814B014A39BDB706F03F17
S214002C042685A2850146EF8000772A8AB706E03F2C
S214002C142685A2850146EF904012AE8963540A00C9
S214002C24B709E03F93250A00FD15B3FBA500139CE6
S214002C34F969C1BB82C2814C014A130520022320D4
S214002C44AC005255AAC0865562859D236285D685FA
S214002C5485236285E685A92B6285A285912B6285EC
S214002C64D285B9231645864C6FF0EFF72689014BBB
S214002C741645B3652B219841CC41B706B0FCE696C1
S214002C842A863A85EF90600B3706F07FB3F6C500C8
S214002C943707A07CAAC2525B637BD7000145930525
S214002CA420022320BC00B70CF07F6FF0CFF337056B
S214002CB4907C6371D50202DC7D55AAC2930CF6FFA4
S214002CC439BE37950100130525ACEF703052AE8C33
S214002CD46FF06FF102DC37055003B38CA50001B624
S214002CE4930500106364B91A93951C00D5811306E6
S214002CF4A006636DB6181306B0046365B612130512
S214002D04700363FCA51682C2B70C70031305A006F5
S214002D142ADCF1B4BD45B385454137A4010013044C
S214002D2484B6B3E685209042D442B304BB40E6851D
S214002D34EF90A000B3E684209042D442EF80F07F68
S214002D44AE8C864D6FF02FEA965585056FF08FE9A9
S214002D5482C2814C2254D5B582C2814A2254F1BD26
S214002D6482C2814CD9BD82C2014A2254F9B51645A5
S214002D74B365A900A5C52254A5AA630D090A06458C
S214002D84D245E98D370510001306F5FF1645639AFC
S214002D94C50AFD55625605C23706F07F8646758E0F
S214002DA4B706A00663E9C60051829305B006918D66
S214002DB47D56B315B6006396A508FD556313B51680
S214002DC43705F07F7D158645639DA51482C222547F
S214002DD4ADB582C2814A95B582C285B50646D2454E
S214002DE4F18D225463960510B705F07FF18D3706F2
S214002DF4B006050663EEC50E83254A0191E58325D4
S214002E040A01094663C6C50E05466285D285EF00EB
S214002E14F01F2A8AE685EF005033AA8516456345D7
S214002E24B00AF9A01306B0060D8EFD55B395C5007D
S214002E346D8DA9A8064532059355C5001645C98D5E
S214002E44D9C1325601C68645F18D19A0B3F5A9003D
S214002E542254D9CD8644A6856256AD222A86AE86ED
S214002E64630609041645A685EF709071AEC049A0A6
S214002E7482C23705F07F2ADAC9B301451306B004C7
S214002E840D8EFD55B395C500B3FC9501AAC2E68523
S214002E9401468146EF80204EE31305940145814C9C
S214002EA4930520022320BC006FF0EFD31645A685B9
S214002EB4EF902030AA84AEC001468146EF80A04B36
S214002EC415C1268535A02254B705F07F0646F18D38
S214002ED4625601CE3706B0066369B600370670033D
S214002EE4636AB60082C202DA89BBFD15AEC07D55A0
S214002EF4E25585C1B706503986450146EF80F06332
S214002F043706F07F6D8EAAC22EDAAEC0E31D06D257
S214002F142DB3AAC20DBB82C202DA364C2254425AE0
S214002F2429BB0145B705F07F0646F18D370610002C
S214002F34B295AEC089B513060CFDA5463E83D28372
S214002F44C68E3E8B968963EEC6C6130E0CFD93881A
S214002F541E0063090E04C692635BD00341442546F3
S214002F6476879E8729A036897D17850705C363C69D
S214002F748700CA86E3D9C7FE31A0B3462921860650
S214002F84E3D3C7FEB3CA5A21860AF9BFF69321468D
S214002F94138A130081486349760033C65A21B32A3C
S214002FA4C62111A81E8A01A83D46636676003346EC
S214002FB429213329C621034C130093071300BED2DC
S214002FC4428495BF411106C622C426C2B2842E840A
S214002FD4EF00303899CC1316140055829306A006D9
S214002FE463E9C6005206B706A046918E0146EF80F6
S214002FF4D054B2402244924441018280B746002015
S214003004938606026FF0AF9BB746002083A60600A1
S21400301432872E86AA853685BA866FF04F9A37464B
S214003024002003260600B7460020938606022E8755
S214003034AA8532853A866FF08F98011106CE22CC87
S21400304426CA4AC84EC6B746002083A6060032875C
S2140030542E86AA853685BA86EFF06F96AA842E84C5
S214003064EF70B00D0DC92685A285EF9080152A89CC
S214003074EF7050128549631B35032685A285EF70D1
S214003084D00B63053503374500200325050093055B
S21400309420020CC121A837950100130525ACEF705A
S2140030A47015B7050080E18D3349B5004A85F240B6
S2140030B46244D2444249B24905618280011106CE77
S2140030C422CC26CA4AC84EC6374600200326060027
S2140030D42E87AA85B74600209386060232853A864E
S2140030E4EFF0EF8DAA842E84EF70300531C126856B
S2140030F4A285EF90000D2A89EF70D00985496318E0
S21400310435012685A285EF705003631B350137050C
S214003114807F3375A90005E93705F07F618D05C505
S2140031243745002003250500930520020CC121A87D
S21400313437950100130525ACEF70D00BB70500805A
S214003144E18D3349B5004A85F2406244D24442498F
S214003154B24905618280411106C622C426C2AA84E9
S21400316468412E8409E99145130610022685EF303E
S2140031742076E8C00DC9B345A420884101C5104196
S21400318490C131A81145331685005106854526851C
S214003194EF30007409C9B315802840C10CC5232834
S2140031A4050023260500B240224492444101828051
S2140031B481C96841D0413345A620104190C10CC155
S2140031C48280011106CE22CC26CA4AC84EC652C4F4
S2140031D483A9050136842A89138545018546B3E605
S2140031E4D90AB3C6A6201841B3470708B387C7024F
S2140031F4A2974183B304C70213D707012697135433
S214003204070193140701B3C70708C58F9304450045
S2140032141CC12685E399D4FC418351CF884563C6F7
S214003224A9080325490403AA450001EDAE84914587
S214003234130610024A85EF30A069A6852322A90446
S21400324441C5050A3345AA20044181C4904010C1F3
S21400325415A01145331645015106AE8485454A85A9
S214003264EF30006735C1A685AA843315402923A20A
S214003274440188C423A8040090491385C40023A6E7
S21400328404009386C5000A0621062E8AB685EF201A
S214003294C0300325490483254A0033C5A5200C41C4
S2140032A42320BA0023204501A68533C5B920850905
S2140032B440C923A835012E85F2406244D2444249CF
S2140032C4B249224A05618280379501001305B53D4F
S2140032D4B79601009386D68D9305A00B0146EF00A2
S2140032E47056011106CE22CC26CA4AC84EC652C40F
S2140032F456C25AC0A9473A8A3689B28AAE892A8BF8
S214003304814463C3F60213058900B795E3389385B1
S21400331495E33315B5029355F50105852E95854538
S21400332486058504E3CEA5FE03254B0411E99145E5
S214003334130610025A85EF30A0592322AB045DC150
S21400334433C5A4200C4181C5904110C139A811454C
S21400335433169500510685455A85EF30605759C196
S214003364AA8533159028C4C188C523A6050023AAB8
S21400337445010545294688C963C5CA029384A90040
S21400338433843A01050403C5F4FF930605FD294674
S2140033945A85053D8504AA85E39784FE63C82A01F9
S2140033A43DA09384A900A54A63D32A033304594154
S2140033B43389840003C5040013841400930605FDB2
S2140033C429465A85FD3BAA85A284E31524FF2E854B
S2140033D4F2406244D2444249B249224A924A024BDB
S2140033E405618280379501001305B53DB796010047
S2140033F49386D68D9305300D0146EF00B044935561
S214003404050193B5150092053315B50013568501CD
S21400341413361600931636003315D500B365B6205A
S2140034241356C50113361600931626003315D50019
S2140034343346B6209355E50193B6150093951600CA
S214003444B315B50013D7E50133A5C62011E7130657
S214003454000263D7050031A01306150063C30500F8
S2140034643285828010419375760091C99375160053
S214003474ADE193752600A5E109828945B9A8C16521
S214003484E115F18D93B5150092053356B600937683
S214003494F60F93B61600B3E5B6208E063356D6005E
S2140034A49376F60093B61600B3C5B6208A0633564E
S2140034B4D6009376360093B61600B3A5B6208606D5
S2140034C43357D6483356D60009EB19CA8505058204
S2140034D429A0014582800582854510C12E858280FB
S2140034E4130500028280411106C622C426C270411A
S2140034F42E8419EA914513061002AA84EF30403D43
S2140035042A862685F0C01DCA4C4281C5884148C219
S21400351419A8854571468544EF30803B05C1AA85C8
S21400352444C1094588C523A60500C0C9054588C900
S2140035342E85B24022449244410182803795010090
S2140035441305B53DB79601009386D68D93055014A2
S2140035540146EF00302F797106D622D426D24AD0FF
S2140035644ECE52CC56CA5AC85EC62E848C49144ACD
S2140035742A8963C4D500B28919A0A2893284032B90
S2140035844400032A040183AA0901032549040444C8
S21400359419E99145130610024A85EF306033232259
S2140035A4A904630E0514B38B4A01B3A574012E9BBC
S2140035B4B345AB20884101C5104190C105A0114513
S2140035C433166501510685454A85EF306030630839
S2140035D40512B3156029232265010CC523260500B0
S2140035E493024501635A7001B3C55B2016862320F7
S2140035F406001106E36DB6FE6354500D93084401AD
S21400360433431A2133C83A215108D10931A080C165
S2140036149109910263F6090B83A50900B3C3050853
S2140036246385030481464684968518408441334660
S214003634070833067602B3C70408BE963696935632
S21400364406011104418333077702C1802697369713
S21400365493560701420733460608598E90C19105D2
S214003664E36564FC94C183A5090093D30501E38153
S21400367403FA83A402000147C6869685268403D6E9
S214003684060033067602C18026973A96135706013B
S2140036944206B3440408458E90C103D62600C441AE
S2140036A491059387460033067602B3C60408369619
S2140036B43304E60013570401BE86E3E267FC81BFC9
S2140036C46352700393952B00AA95C105054698414D
S2140036D4DE8601EB938BF6FFF115E34AD6FE814BAB
S2140036E411A0B68B23287501B25022549254025965
S2140036F4F249624AD24A424BB24B456182803795C0
S21400370401001305B53DB79601009386D68D930543
S21400371420160146EF001013011106CE22CC26CA4D
S2140037244AC84EC6B2840D8AAE892A8911CE37A5F8
S2140037340100130585B53345A6200326C5FF4A8533
S214003744CE858146BD3CAA898984CDC80325090453
S21400375435E58325490499E99145130610024A85FF
S214003764EF300017AA852322A90415C9C84101C54C
S2140037741041D0C119A88545714605444A85EF30E5
S214003784201511CD40C189450CC523260500930597
S21400379410274CC985450CC92320A90431A83795A0
S2140037A401001305B53DB79601009386D68D9305A3
S2140037B450140146EF0010092320050093F5140069
S2140037C42A849DC14A85CE8522867133638D09007D
S2140037D48325490403A64900B345B620904123A097
S2140037E4C90023A03501AA89858489C8084079F5CB
S2140037F44A85A2852286853308C07DBF4E85F24061
S2140038046244D2444249B24905618280011106CE1F
S21400381422CC26CA4AC84EC652C456C25AC0B28918
S214003824AE8A84498C4503A44A00135A5640338B07
S21400383444012A896346BB0086050504E35EBBFE95
S2140038440325490411E99145130610024A85EF3011
S21400385420082322A90471CDB345A420884101C5BC
S214003864104190C131A8114533168500510685458F
S2140038744A85EF30E00555CDB315802840C10CC508
S214003884232805002326050013064501635D400131
S214003894B346AA20D10693054600232006002E86AA
S2140038A4E39BD5FE11A0B28503A60A0193864A01BE
S2140038B413F8F9013346D620630A08020144930735
S2140038C40002B38707418442B3940401458C80C147
S2140038D4844291051387460033D4F400BA86E36421
S2140038E4C7FE80C1B33580002E9B19A898429387E3
S2140038F446009384450098C1BE86A685E3E8C7FEC5
S21400390423286501638D0A008325490403A64A001B
S214003914B345B620904123A0CA0023A05501F24027
S2140039246244D2444249B249224A924A024B056151
S2140039348280379501001305B53DB796010093863E
S214003944D68D9305E01D0146F52D10499449158E34
S21400395419C2328582808A06C10661463307D500BD
S2140039641843B387D5009C43631AF70013874600B1
S214003974F116E345E6FE0146328582803335F700CC
S2140039843305A040136515008280011106CE22CCB3
S21400399426CA4AC84EC652C42E8494490C4A338A50
S2140039A4B6402A8963060A0063400A06B289B9A8A3
S2140039B48A05C1056145B306B40094423307B600D0
S2140039C41843639BE60293864500F115E345D5FE4E
S2140039D48325490481ED9145130610024A85EF209C
S2140039E4306FAA852322A904630905148841630954
S2140039F40510104190C139AA33B5E6003305A0403E
S214003A04136A1500E3540AFAA2893284032549048A
S214003A14444019E99145130610024A85EF20506B7D
S214003A242322A904630F050EB3C5A420884101C54B
S214003A34104190C131A811453316950051068545AD
S214003A444A85EF20F06871CDB315902844C10CC5A3
S214003A5481469355FA01232805004CC503A609019F
S214003A640328040193084401D109B34236211307FD
S214003A7445014686044283A5090033C40408B3C737
S214003A8405081D8C3694935604411106C18091098D
S214003A94C1818D8CB69493D60441C204B345040800
S214003AA4C58D0CC31107E3E759FCB34718216378A7
S214003AB4F6020C42B3C40508B69493D60441110624
S214003AC4C181B69593D60541C205B3C40408C58D15
S214003AD4930447000CC32687E36DF6FC11A0BA8452
S214003AE493051800F1149040FD15F1146DDE0CC911
S214003AF4F2406244D2444249B249224A0561828075
S214003B048545614605444A85EF20905C1DC5232201
S214003B14050000C52326050085450CC9232A050093
S214003B24C1BF379501001305B53DB79601009386CE
S214003B34D68D93055024014631233795010013058D
S214003B44B53DB79601009386D68D9305702301463E
S214003B54D5293705F07FE98D370540031306150090
S214003B6463E7C50001453706C0FCB29582800D8D1B
S214003B7437060002930616001356450163E8D5007F
S214003B840145B7050800B3D5C5008280D58181E517
S214003B9405458145828013053003118D3315A02811
S214003BA4814582808328050133C3A820832303012B
S214003BB493D6030193B6160092063397D300935711
S214003BC4870113B61700931736003317F7003366CA
S214003BD4D6209356C70193B616009397260033173C
S214003BE4F70033C6C6209356E70193B6160093979C
S214003BF41600B317F700B3A6C62013D6E701930240
S214003C04000211E61308000263D7070031A01388E8
S214003C14160063C30700C286130845019307030111
S214003C243385D240294688C16369D6002D45158D53
S214003C346370F8028325C30029A8094563C4A80253
S214003C440325C3009307C300938556FF85E1A1A00F
S214003C548145D5063396D300B3D3A30033D5A50048
S214003C64518D15A80145938556FF95C53396B30027
S214003C741307B002B306D7403357D5006375F80070
S214003C8483A7C7FF11A08147B363E6003315B500C9
S214003C94B3D5D7004D8DB705F03FB3E5B3008280AA
S214003CA4011106CE22CC26CA4AC84EC652C456C2F3
S214003CB42A847C413A89B689B2842E8A99EB914546
S214003CC4130610022285EF20B040AA8768C063015D
S214003CD40522C84301C50C41CCC329A885457146B5
S214003CE4854A2285EF20D03E630405202322550111
S214003CF489450CC523260500930545011396C40083
S214003D049356C6001396140055823337C0005207E4
S214003D14D98E630F0A0013777A001DC713771A002B
S214003D246DE313772A0075E393572A000947E5A83D
S214003D3413F7760035C713F7160061E313F726006A
S214003D4479EB8982094731A2416761173377EA0024
S214003D54133717001207B357EA0093F4F70F93B418
S214003D64140033E7E4208E04B3D4970093F7F400EA
S214003D7493B7170033C7E7208A07B3D4F40093F742
S214003D84340093B7170033A7E720860733D4F448E4
S214003D94B3D7F4002DE4D9E313070002D1E359A006
S214003DA441676117758F133717001207B3D7E600FC
S214003DB493F4F70F93B4140033E7E4208E04B3D4DB
S214003DC4970093F7F40093B7170033C7E7208A07E2
S214003DD4B3D4F40093F7340093B7170033A7E7205F
S214003DE4860733D4F448B3D7F40005E499C393D6CE
S214003DF41700B9EF13070002A9A8014799A83E8A3D
S214003E041DE3014723A045013DA093571A0005472B
S214003E1419A8BE863DA88582054725A8050799C327
S214003E2413DA1700D287B304E040B3949600C58F24
S214003E349CC1B3D6E60014CDB336D000850614C9AB
S214003E4419CE3A961306D6BC93055003998D61A0F5
S214003E54050754C9854614C9130707027DF2B3C57E
S214003E64B62083A5C5FF13D6050113361600120621
S214003E74B395C50093D7850193B417009397340080
S214003E84B395F50033E6C42093D7C50193B4170061
S214003E9493972400B395F500B3C7C42013D6E50161
S214003EA493341600139614003394C5001356E40195
S214003EB4B3A5F42019E69307000296066358040097
S214003EC439A093871500960663430400BE8513063F
S214003ED4E7BCB385B64023A0C9002320B900F2404E
S214003EE46244D2444249B249224A924A05618280D7
S214003EF4379501001305B53DB79601009386D68D18
S214003F049305F03001463D2A011106CE22CC26CA7E
S214003F144AC84EC62E84AA842C0069312A89AE89E2
S214003F244C00228541312246924698481C48158EFC
S214003F341D8F160732972A86AE866355E000520711
S214003F44BA9919A05207998E4A85CE85EF704060BB
S214003F54F2406244D2444249B249056182806146D5
S214003F64AA85635BC50037A50100130585B633E54E
S214003F74A5204C4108418280411106C622C426C2AF
S214003F84014513841500B705F03F8544B706244061
S214003F940146EF70905A7D14E3EA84FEB240224450
S214003FA4924441018280184AFD159585B3C8A52020
S214003FB4138848006354E0023347C7205107930729
S214003FC446019443938547001306450014C1328581
S214003FD4AE87E3E8E5FE6366060121A82A86637ACF
S214003FE40501711613054600232206002A86E36B94
S214003FF415FF8280144913D6554063D4C60036860E
S2140040040DA06350D602FD8989CD93064501B346BB
S214004014D62094427D57B315B700B3F6B64085450F
S21400402491EE0A064105D5459306460163CAB600D5
S214004034B306C50094427116E5DA85452E8582805E
S2140040440145828037470020032707005847B68873
S214004054AE82AA8619C63288B78701009387C773CB
S21400406431A0B7970100938727AC3E88411106C656
S214004074B7950100938595553A8546861687EF20B1
S2140040843011EF20C067B28601466D3F411106C667
S21400409422C405CE3284B7A501009385D596328511
S2140040A4EFD0EFFB1DC1B79501009385D52D228572
S2140040B4EFD0EFFA19C9B7950100938525AC228590
S2140040C4EFD0EFF919C1014529A037950100130572
S2140040D4D52DB24022444101828037450020034555
S2140040E485148280411106C622C485CD2E84B7A5C8
S2140040F401009385D5962285EFD06FF61DC1B7953E
S21400410401009385D52D2285EFD06FF519C9B79593
S2140041140100938525AC2285EFD06FF419C10145C3
S21400412429A0379501001305D52DB240224441013C
S214004134828093F5F50F13763500ADC909CE1306C4
S214004144150083460500F1C66386B60A0505937610
S21400415436000506FDF637868080184113060608E5
S214004164B706010193880610B387E840D98FF18F0C
S2140041746393C7089397850033E8B700931708013D
S21400418433E8070133470701B387E8405D8F718F33
S2140041946313C7065841930745003385E840598D95
S2140041A4B376C5003E85E38FC6FCB9A019CA93054D
S2140041B41500034605001DCE050513F635008505D6
S2140041C46DFAB785808013860508B70501019386C6
S2140041D405109305B5FF03A555003387A640598DF2
S2140041E4718D9105E309C5FE03C6150013851500F8
S2140041F4AA857DFA8280AA87FD1703C5170085075E
S21400420419C1E31CB5FE2D8D3335A0007D157D8DBB
S2140042148280014582802D71232E1110232C81105B
S214004224232A9110232821112326311123244111F6
S2140042342322511123206111DEDFE2DDE6DBEAD919
S214004244EED7368A328CAE84AA8AEF10C033084181
S2140042542AC4EF60C00683D5C40093F505082A84F3
S2140042648DC1884819ED930500041309000456858A
S214004274EF30C04488C088C819E16F10C02F23AA45
S214004284240102CE014B02CC02D202C602C8480167
S214004294AAC382C782C522CA050422C01D43B7AC7E
S2140042A40100938C0CC8130D500256DE6285930DE4
S2140042B441080144130C15008345FCFF81C963873C
S2140042C4A501050C7D148345FCFFF5F921C0B30553
S2140042D480403E4623A0AD002E4523A2BD00018E9D
S2140042E4B2C793051500AEC5634D6500D00156856B
S2140042F4A685EF50705D1D43930D410801C56F10F0
S2140043048023A10D8345FCFF330B8B4099E16F108E
S214004314A021A68A014501448149A30F010CFD5B37
S21400432403490C00050C9375F90F811513068005D7
S214004334636FB63AB3C595218C41828503490C0058
S2140043449305A002050C6307B90C130609FDA545E1
S21400435463E3C5028145E28603C90600B3C5B520FA
S214004364B3A5C520138C1600130609FD2947E2865B
S214004374E364E6FE11A081457D56B3EBC50A65B736
S2140043848149B3C53921B3A5252103490C00938976
S21400439405FD930509FD2946050CE3E4C5FE61B752
S2140043A413648400B5BF83450C009306C006130649
S2140043B400026383D5004146938545F993B51500FD
S2140043C4518C2E9CB1BF1364040299BF136414006D
S2140043D481BF13640408A9B721F513050002A30FCF
S2140043E4A10C3DBF1305B002A30FA10C15BF832972
S2140043F40A0093054A002E8AE3D409F2B309304131
S214004404136444002E8A29BF1364440011BF136446
S214004414040439B783250A00110A7D56B3EBC50A8E
S21400442401B71375040211ED13750401D68415E55E
S21400443413750404F25A15E903250A0023206501BE
S2140044440DA803250A009355FB414CC123206501A2
S214004454110A6285D684F25AA9BD03250A002320D0
S2140044646501110A6285F25AA9B503250A002310CC
S2140044746501110A628535BD1375840056C211E9BB
S2140044841D0A13758AFF4441032A050021052AD410
S21400449415A003250A000C41504114454845110A4D
S2140044A452D4AAC6B6C4B2C28800AEC0EF70F077C3
S2140044B42A8AAE845285A685EF602048854552CC6C
S2140044C426D26318B5025285A68501468146EF605A
S2140044D4906A635605001305D002A30FA10C1305BA
S2140044E480041D436360A908B79C0100938CDCDD3F
S2140044F4B9A15285A685EF60404463080520937AE7
S214004504F90D13C57A0433657501DE855E8D11E1F8
S214004514054DA28B7D556393A500194D1385AAFB03
S214004524933615001385BAFB133415006A9489066E
S2140045341396F449BC091308410E9308010E7255EC
S214004544D2852287EF30E06713FA1B00AA8C631A21
S2140045540A1C130570046396AA1C0E55B3049541F1
S2140045641D4335A9B79C0100938C4C04C9AE136453
S214004574040113750402D68411ED13750401631542
S214004584052083220A009375040463810520B3C2C0
S2140045940208EDAA1D0A13768AFF4C4283220600FF
S2140045A4210632D4854625A4136404011375040237
S2140045B4D68411ED13750401631E051883220A00C0
S2140045C493750404638A05189392526071A21D0AB7
S2140045D413768AFF4C4283220600210632D485468F
S2140045E463D9051E49A2814513054A002AD48322AD
S2140045F40A001364240013060003230DC1041309E0
S2140046048007A30D210537A50100130555822AC886
S2140046148946D6846DAA03250A0002D0814B110A66
S21400462452D4230EA104A30F010C054D1309300622
S214004634930CC105D68461A9379501001305E58E50
S21400464429A037A50100130555822AC8137504024C
S214004654D68411ED137504016317051483220A002A
S2140046649375040463830514B3C202083DAA1D0AA5
S21400467413768AFF4C4283220600210632D40DAA02
S214004684136404011375040211ED13750401631415
S214004694051083220A009375040463800510B3C2D0
S2140046A40208E5A81D0A13768AFF4C4283220600F8
S2140046B48146210632D4D68419AA832C0A00110A0C
S2140046C452D4A30F010C63830C24D684668563CE70
S2140046D40B2681455E86EF50101819C1B30B954121
S2140046E402D05E8D13093007814B1D43CDA6D684B8
S2140046F4E30C096202D0814B230E2105A30F010CA3
S214004704054D930CC10552D4D9A61D4363CD042090
S214004714130580046361A922B7AC0100938C1C8244
S21400472439AC130560046694639DAA22DA8403CB2D
S2140047340C006245925501468146EF60D043630FF4
S214004744052013050003631BAB2005453305A5416F
S214004754AACD31A483220A00110A52D493D5F24179
S214004764854663D805061306D002A30FC10C63C49E
S2140047740B001374F4F733365000B3025040B305FD
S214004784B040918D2288A5A883220A008145110A8B
S21400479452D485462DA883220A00D68481458146B4
S2140047A4110A52D42DA083220A008145110A52D43C
S2140047B413761400894601CE33E6B20009CA1306FE
S2140047C40003230DC104A30D210513642400A30FC5
S2140047D4010C228863C40B001378F4F733E7B200A5
S2140047E419EB639A0B008DEA1375140015C5814BFB
S2140047F41305000329A885C605476390E60693B605
S214004804A20013B71500F98EBDCE13E50203A3016B
S214004814A108930C3108EDA0930C4108D5A0930C85
S214004824310893F67200138706032380EC0013D531
S21400483432001397D501B362E5008D8133E7B200E9
S214004844FD1C65F39375180013851C00CDC9C5CAF5
S214004854130500032380AC0065A0930C4108C246F0
S21400486413F5F200369503450500A38FACFE13D569
S21400487442001396C501B362C500918133E5B200C8
S214004884FD1C79FDB5A8930C410893D61200139726
S214004894F501D98E13D71500B387E60033B4D700D5
S2140048A4A297B7D8CCCC1386D8CCB3B4C70213D44B
S2140048B42400F1982694818FB384F6401384C8CCE0
S2140048C43384840233B5C4022295B3B6F600158F3A
S2140048D4B306C70293B51500369593961400B386AF
S2140048E4D24013B7A200B382C40213E60603A38F12
S2140048F4CCFE6D8FFD1CAA8549DBD68411A0AA8C3C
S21400490402D04801330D95414284D1A202D0194504
S21400491433DDAB0A13093007B7AC0100938C4C9F08
S214004924814BD6846DA21305D002A30FA10C1305E8
S2140049348004E373A9DEB79C0100938C8C6802D0D4
S214004944814B1374F4F70D4D51A2EF5050172A8D76
S21400495402D0814B130930071D4395AA6E452A944D
S214004964268B6245925501468146EF60D02001E5CC
S21400497422851D4339A80E551D43637C8500930587
S2140049841500AED1930500032300B5000E55E36869
S21400499485FE93057004B30495416397BA025E845A
S2140049A4EE46755563C0A602634EDD001309700615
S2140049B463DB960E524D269D634ED00E330DDD40BE
S2140049C4050DCDA8791939A0130550065E84636CCD
S2140049D42579EE461385F6FFAACDA308210D130606
S2140049E4D0026354D0001306B002B305A040B365EA
S2140049F4B50A29452309C10C63EAA5061945AE86FE
S214004A04B7D5CCCC9385D5CCB3B5B6028D8133C699
S214004A14B52006063386C64013670603D011B307CF
S214004A24A6002380E700130730067D15E369D7FC4C
S214004A3493E505032A969306250021472300B6002E
S214004A449305310D634ED7021306310DAA86C8119D
S214004A5436950347050013851600930516009947F7
S214004A642300E6002E86E3C3F6FE19A8130500030A
S214004A74A309A10C13E50503230AA10C9305510D04
S214004A84814613351A001306110D3386C54093A5C7
S214004A9424006D8D7D15D245337DB50032C6338531
S214004AA4C4002A9D01A813351A007D15D245337D0E
S214004AB4B500369D925536D026CE13640410814B2D
S214004AC463D605001305D002A30FA10C9244034538
S214004AD4F10D5EDAB3E5AB0B3335A000937A240010
S214004AE4D6952E95937B44082AD6338AA94022DC91
S214004AF4639D0B08635B40095A8445456369AA04B1
S214004B04528501A8A10D13050BFF9305000263D17E
S214004B1465052A8B3E45B7A50100938545DE23A08F
S214004B24BD00AE45414623A2CD004105AAC7138564
S214004B341500AAC5E3C865FCD0017255A685EF50DA
S214004B44A0581D43930D41085DDD6F00B01D5285CE
S214004B54BE4537A60100130646DE23A0CD002E462A
S214004B6423A2AD002E95AAC713051600AAC5634E48
S214004B746604D0017255A685EF5000551D43930D6B
S214004B844108228B6254E318051A0345F10D21C52A
S214004B943E459305F10D23A0BD00AE45054623A270
S214004BA4CD000505AAC713851500AAC563CD650003
S214004BB4D0017255A685EF5020511D43930D410830
S214004BC419C96F005017A10D39A0A10D228B62548C
S214004BD40345F10D55FD5AD8638F0A083E459305E3
S214004BE4A10523A0BD00AE45094623A2CD000905B4
S214004BF4AAC713851500AAC563CE6506D001F25A66
S214004C045685A685EF50404C1D43930D4108414BF5
S214004C14E3180510130500086395AB06A68B6353CB
S214004C2440074545B7A40100938444DF6361AA06A0
S214004C34528501A8A10D130504FF9305000263D94C
S214004C4485042A843E4523A09D00AE4523A26D011B
S214004C544105AAC713851500AAC5E3CD65FCD00196
S214004C645685DE85EF5040461D43930D410861D5B9
S214004C746F00B00AA10DF25A414B13050008E38FEA
S214004C84ABF8A68BB7A40100938444DF2DA8528505
S214004C94BE4523A09D002E4623A2AD002E95AAC78E
S214004CA413051600AAC5634E6600D0015685DE8538
S214004CB4EF5080411D43930D4108625409C56F00AF
S214004CC4D005A10D625452553305A541635DA0027B
S214004CD4C5456374B508BE4523A09D002E4623A291
S214004CE4AD002E95AAC713051600AAC5634F66081D
S214004CF4D0015685DE85EF50203D1D43930D4108B7
S214004D046254E31C05001375041049E53E4523A0D0
S214004D149D01AE4523A2AD016A95AAC71385150069
S214004D24AAC563CE650CD0015685DE84DE85EF50B9
S214004D34A0391D43930D4108B7AC0100938C0CC8F1
S214004D44130D5002630C05666F00807DA10D1305DC
S214004D5404FF93050002E3D085F82A843E4523A089
S214004D649D00AE4523A26D014105AAC71385150013
S214004D74AAC5E3CD65FCD0015685DE85EF50C03468
S214004D841D43930D410861D549AFA10D62541375B7
S214004D9404102DDD130560066340A908624592558C
S214004DA401468146EF60205D130D50026311051025
S214004DB43E45B79501009385B54323A0BD00AE4597
S214004DC4054623A2CD000505AAC713851500AAC566
S214004DD41D4363C06512D0015685DE84DE85EF5020
S214004DE4A02E1D43930D4108B7AC0100938C0CC84C
S214004DF463180572137514006306051001AAA10D45
S214004E04B7AC0100938C0CC8130D5002DE841375E6
S214004E1444006318055AE5A33E4523A09D01854634
S214004E2423A2DD002E460505AAC7A10D930516008C
S214004E34AEC5130D50027247DE8463C6E60293764F
S214004E44140095E2B7AC0100938C0CC8634E66520E
S214004E54D0015685A685EF5020271D43930D4108A3
S214004E646304055275AD634E6600D0015685A6856B
S214004E74EF5080256316056A3E45AE45930D4108FE
S214004E841D43224623A0CD00524623A2CD003295D0
S214004E94AAC713851500AAC563C3650AD00156853B
S214004EA4A685EF506022930D410859C995AD6E450D
S214004EB41D43635EA018724582553349B50A63598B
S214004EC4201D3E4523A09D01AE4523A22D014A95F3
S214004ED4AAC713851500AAC563CB651AD0015685E3
S214004EE4DE85EF50601E1D43930D41086302051ACC
S214004EF42DA5A10DB7AC0100938C0CC8DE841375E8
S214004F04140009E56E45F245635AB54A3E45A24586
S214004F1423A0BD00AE45524623A2CD003295AAC7B3
S214004F2413851500AAC563C3650CD0015685A685EE
S214004F34EF5080191D43930D410855C9D5A3A10D03
S214004F446245925501468146EF60E04229C1850CD0
S214004F5423A09D013E45F245FD152E4623A2BD0025
S214004F642E95AAC713051600AAC51D43634B660CE7
S214004F74D0015685A685EF5020151D43930D410894
S214004F84B7AC0100938C0CC86300054051AB1D43BD
S214004F940945B7AC0100938C0CC872446345A43E23
S214004FA449456369A4343D0439A0A10D4114130591
S214004FB40002635C85383E45B7A50100938545DF4E
S214004FC423A0BD00AE4523A26D014105AAC71385E3
S214004FD41500AAC5E3CB65FCD0015685A685EF501F
S214004FE4A00E1D43930D410871D11DABA10D0945BB
S214004FF47244634BA42649456369A4083D0439A05A
S214005004A10D4114130500026359852A3E45B7A530
S2140050140100938545DF23A0BD00AE4523A26D01A4
S2140050244105AAC713851500AAC5E3CB65FCD001C4
S2140050345685A685EF5040091D43930D410871D14E
S214005044C5A1A10DB7AC0100938C0CC835AEBE4506
S214005054379601001306B64323A0CD002E46854698
S21400506423A2DD008505AEC793051600AEC56345CD
S214005074660AD0015685DE85EF500005631F054895
S2140050846E45930D41081D4349A87D1405ACA10D3A
S2140050943365090A82553385A540635DA006C54578
S2140050A46372B504BE4523A09D002E4623A2AD0020
S2140050B42E95AAC713051600AAC56348660CD00128
S2140050C45685DE84DE85EF5020001D43930D41088F
S2140050D462545DCDB1A1A10D130504FF9305000232
S2140050E4E3D285FC2A843E4523A09D00AE4523A238
S2140050F46D014105AAC713851500AAC5E3CD65FC55
S214005104D0015685DE85EF40307C1D43930D410863
S21400511461D521A1DE84ADA8A10D93751400724655
S214005124D18DC98D91E5B7AC0100938C0CC8F9B943
S214005134BE45224623A0CD002E46D24623A2DD003D
S214005144B695AEC793051600AEC56347661AD0017A
S2140051545685DE85EF4050776311053C6E45930D0A
S21400516441081D4359AAEE4613056006E312A984B6
S21400517433654D01635FD0361309600692556305A7
S214005184053852452A9D369D3DB2A10DDE846254F3
S2140051946E459375140091E5F2456344B500825B51
S2140051A435A8BE45224623A0CD002E46D24623A2CD
S2140051B4DD00B695AEC793051600AEC5825B634E9A
S2140051C46600D0015685A685EF401070631A053434
S2140051D46E45930D41081D4311A0A10D3369750B4F
S2140051E4F245B38525416351B004DE9C3E4623A0B8
S2140051F49D01AE4623A2BD00B295AEC793851600A8
S214005204AEC563C26602D0015685A685EF40D06B54
S214005214B7AC0100938C0CC8631405306E45930D2F
S21400522441081D4331A0A10DB7AC0100938C0CC8F6
S214005234F245B3C5250B3385A5406351A018C54573
S2140052446371B504BE4537A60100130646DF23A0E6
S214005254CD002E4623A2AD002E95AAC71305160030
S214005264AAC5635E6606A10D625413754400631AEC
S214005274051471A2A10D130504FF93050002E3D3E0
S21400528485FC2A843E45B7A50100938545DF23A007
S214005294BD00AE4523A26D014105AAC713851500BE
S2140052A4AAC5E3C965FCD0015685A685EF40D06142
S2140052B41D43930D410861D1A5A441143E45B7A5ED
S2140052C40100938545DF23A0BD00AE4523A28D00D3
S2140052D42295AAC713851500AAC5E3C665F8D001AA
S2140052E45685A685EF40505E1D43930D41086254D3
S2140052F471C53DA47D1499A8A10D634E0516DE84E0
S2140053043E4523A09D01AE45724623A2CD003295AC
S214005314AAC713851500AAC563C06502D0015685C1
S214005324A685EF40705A1D43930D4108B7AC0100A3
S214005334938C0CC841C5EDA2A10DB7AC0100938CAB
S2140053440CC81375440035ED5DA841143E45B7A559
S2140053540100938545DF23A0BD00AE4523A28D0042
S2140053642295AAC713851500AAC563CD6500D0018A
S2140053745685A685EF4050551D43930D410862544B
S21400538401C579AAA10D62543E459305110D23A0CB
S214005394BD00AE45324623A2CD003295AAC713857A
S2140053A41500AAC563C4650CD0015685A685EF40D2
S2140053B4B0511D43930D410863140516137544003C
S2140053C41DCD635E400345456376AA063E45B7A5F4
S2140053D40100938545DE23A0BD00AE4523A24D0102
S2140053E42A9AD2C713851500AAC563CB6500D001D7
S2140053F45685A685EF40504D1D43631305123E4A5D
S214005404325533E5A90A425B2A9B630A0A00D00197
S2140054145685A685EF40504B1D43631E051082C576
S214005424225A6FE0BFE8A10D130A04FF1305000219
S214005434E35E85F852843E45B7A50100938545DEB4
S21400544423A0BD00AE4523A26D014105AAC713855E
S2140054541500AAC5E3C965FCD0015685A685EF40AC
S214005464B0461D43930D410861D15DA8A10D137587
S214005474440021F969B7B305A0403D566373A604FA
S2140054843E4523A09D002E4623A2BD002E95AAC706
S21400549413051600AAC563456606D0015685DE8444
S2140054A4DE85EF4070421D43930D41086254E309C4
S2140054B405E4BDA0A10D930504FF13050002E35106
S2140054C485FC2E843E4523A09D00AE4523A26D0197
S2140054D44105AAC713851500AAC5E3CD65FCD0010E
S2140054E45685DE85EF40503E1D43930D410861D539
S2140054F42DA0925509ED054D130960066FF0AFDB3C
S214005504A10DDE846254EDBB368D6FF0CFDA024512
S2140055142A9D130960066FF00FDA425BDE8421A829
S214005524425B11A8228B01A83E4511C5D0017255D5
S214005534A685EF40703903D5C400137505041335EA
S21400554415007D15336565018320C111032481117F
S21400555483244111032901118329C110032A8110D0
S214005564832A4110032B0110FE5B6E5CDE5C4E5DED
S214005574BE5D15618280314523A0AA007D55E9B73A
S2140055841305050F82803745002013050511828018
S214005594374500201305051182809146B308C500DF
S2140055A46363D6041376350093F63500631DD6027E
S2140055B431EAAA8613F7C8FF3306D74093071002CA
S2140055C46352F6062E86B68763FBE7000C42938684
S2140055D4470011068CC3B687E3EAE6FE11A0BE8632
S2140055E463E516018280AA862E86E3FD16FFB38540
S2140055F4D840034706002380E6008506FD15050609
S214005604EDF9CDB7130615002A8783C70500930660
S214005614170085052300F7009377360005063687BE
S214005624EDF749BF1306F6FDB797E338938797E37C
S2140056343336F6020D823366C6203346B620130888
S21400564446029C4183A2450003A3850083A3C500AC
S21400565403AE050183AE450103AF850183AFC501E3
S214005664138645028C519CC223A2560023A46600CE
S21400567423A6760023A8C60123AAD60123ACE601F6
S21400568423AEF601938746028CD2BE86B285E31A11
S21400569406FB1DBF5D7186C6A2C4A6C2CAC04EDE86
S2140056A452DC56DA5AD85ED662D466D26AD06ECE49
S2140056B4AE8B8C413ECA3A8AB68A32CC2A8B814952
S2140056C4138425001305000333063401034606003D
S2140056D48509E30BA6FE37A90100130949E04A969B
S2140056E403450600138CF9FFCE95938C150021C153
S2140056F4814D8149E68403C504004A9503450500A7
S214005704850475F91384F4FFB7950100938505ACF9
S21400571405462285EF009076639909021DE5034548
S21400572414004A9503450500050475F915A0B795B8
S2140057340100938505AC0546854D6685EF0010741B
S214005744630D0520014D668439A063830924CE8445
S214005754818C139D240003450400136505029305FC
S2140057640007631AB502834514001306B002014805
S2140057746388C5009306D00205466396D50005489F
S214005784834524000946CA9583C50500938665FEAD
S2140057941D5763FBE60023A08B0063820D0633359A
S2140057A480017D15198935A9B307C40003C61700FF
S2140057B44A9603470600138605FF9306F7FFE1445F
S2140057C4850763E8D418E54483C61700B345C620A6
S2140057D4B3A5E520CA9603C70600938617001305EB
S2140057E4F7FF138605FFB687E36095FE630408009B
S2140057F441460D8E329D23A0DB00E3920DFA13C5BD
S214005804FCFF2295A145634AB50081453D46AA861C
S21400581485050581E36DD6FE11A0814556C452C8A0
S2140058245AC65A85EFD03F936307054CAA8B814A24
S214005834014C130B45019309E002B79401009384CD
S21400584404AC130A0002DA8D9305F4FF13851500E1
S21400585463F4AC042E8403C50500631A35010546BB
S2140058642285A685EF0090619305F4FF65D16399C0
S2140058744A01814A13854D0023A08D01AA8D014C4F
S214005884034504004A95034505003D893315550133
S214005894336C8501910A4DBF23A08D0133856D417C
S2140058A411059355254023A8BB00131435006285C3
S2140058B4EFD0FFB4E24C83A90C003305A44063D1B7
S2140058C4A904330935415E85CA85EFE0AFF269CD98
S2140058D41305F9FF93555540B3C565218C4133D55F
S2140058E4A548630205100948635028119305E9FF8B
S2140058F45E85EFE02FF01335150013483500EDA054
S214005904635A35093384A9403245DE852286EFD0B2
S214005914FFEFAA8B0148330D8D40130B450103A5F9
S2140059248C00634AA51703A94C000545635A2D0746
S214005934330CA94163503C091304FCFF054563136B
S214005944081A0945634FAC185E85A285EFE08FEA16
S21400595451AABE86E31E08E871BDA29903C50900D4
S214005964B305A90083C50500B1C1054C9305000322
S2140059740546CE8C631BB500CE8C03C51C00850C77
S214005984E30DB5FE4A9503460500933D16009DB308
S214005994014DD1B3014803A58C00634EA50F61B732
S2140059A4EA8A6315082005AC01483DA8014D854DDB
S2140059B44E8465B303A5CC008D456304B5108945B4
S2140059C46305B50E85456314B50E6392890F0945C4
S2140059D463CBA90E9385F9FF5E85EFE0AFE161C95D
S2140059E403A94C00CDA0054803A50B0193555940C7
S2140059F463DEA5049378F90133456521638B0804B7
S214005A0433C665211842930746003357170151469B
S214005A1463F0A70693040002B384144193878B01B2
S214005A24139425005146B38587009441B396960097
S214005A34D98E23AED7FE8C4111069107B386870014
S214005A4433D71501E3E1A6FEF11725A023A80B0022
S214005A5425A833C67521D145B306B60094423387CC
S214005A64BB009105B307B60014C3E3E7A7FE39A04D
S214005A74DA8798C33335E000B345C520B11513D58E
S214005A84254023A8AB0099E123200B004A9D03A5DB
S214005A948C00E35AA5E9C2443245DE85EFD04FF1C7
S214005AA423A004001305300A2DAA524509CD324519
S214005AB4DE85EFD0EFEF42452320050013050005F1
S214005AC40DA252456DD5224523202501054523A860
S214005AD4AB002320AB0042452320750113052006A6
S214005AE409A2014593555440B3C56521904183A549
S214005AF40B0133588648060813565C4093884B01BE
S214005B04635DB6049372FC01B3C31521638A020471
S214005B14B34516219841910533545700514763F015
S214005B247506930400023383544093858B019316C1
S214005B34260051473386D5000442B3946400458C4E
S214005B4423AE85FE104211079105B387D500335462
S214005B545600E3E177FEF11525A023A80B0025A83F
S214005B6433467621D145B306B60094423387BB004C
S214005B749105B307B60014C3E3E777FE39A0C685DC
S214005B8480C1B3358000B3C5E520B11513D62540D2
S214005B9423A8CB0099E123A0080083AA4C0033680D
S214005BA40501B389894109456307080283A5CC002A
S214005BB40D46638BC50409466384C5040546639B8A
S214005BC4C5009375280099C583250B00B3E5050128
S214005BD485898DED4105C244224423A07401232007
S214005BE45401B640264496440649F259625AD25A9B
S214005BF4425BB25B225C925C025DF24D6161828024
S214005C0485455246918D11A0D245E9D503AC0B01CA
S214005C1413854B01B345AC20324B1041050611EEFB
S214005C2413064500232005003285E368B6FE03A567
S214005C348B006359AC0062852DA810C16285C244EE
S214005C44224489A083A54B0085055A85EFD0AFD0A2
S214005C5461C12A8A03A60B0131059385CB000A0687
S214005C642106253A5A85DE85EFD08FD403250A010E
S214005C74D28BC2442244B3457521050523A8AB0044
S214005C840546D0C993854B0163562D0303A50C0026
S214005C941306F5FF13052002E391C9F413D5594002
S214005CA43345B520084133553549133515001305DA
S214005CB4150225B76344AC0213F9F9011305100263
S214005CC4E30D09F03345BC200325C5FFEFD02FF3C1
S214005CD493050002B3852541635AB50085455E8564
S214005CE4A92003A58C0063D6AA00850A1305100212
S214005CF4EDB55A855DB337950100130515DEB796E5
S214005D0401009386D68D9305400E0146EFE08FB3CF
S214005D1437950100130515DEB79601009386D68DD8
S214005D24930540080146EFE0EFB1104913D75540FC
S214005D3413084501635DC70493F8F5013343062150
S214005D44638A08043346072114421106B3D71601A2
S214005D54D1466370660613060002B30216411306A4
S214005D64850193132700D146330776000C43B39579
S214005D745500DD8D232EB6FE0C439106110633071F
S214005D847600B3D71501E36167FE711625A02328B4
S214005D94050025A8B346A7205146B385C6008C4106
S214005DA43307C5001106B387C6000CC3E3E767FED6
S214005DB439A042861CC2B335F00033C6D52031164E
S214005DC4935526400CC911C2828023200800828085
S214005DD4397106DE22DC26DA4AD84ED652D456D29A
S214005DE45AD05ECE62CC66CA6AC86EC60947B68BFF
S214005DF4B28DAE892A8963EAE60481467D58054653
S214005E04054B854511A81386160085453688054B2F
S214005E14B2862E96637E76033387CD00034707004B
S214005E24B3870D01AE9783C707006376F700330B7D
S214005E3406418545F1BFE318F7FC63956501338693
S214005E446601C5BF85053686E1B7014A054B8DA0B8
S214005E5481457D5585470546854611A893871500D7
S214005E6485462E850546BE85B69763FB770333873E
S214005E74FD00834407003387AD00369703440700CC
S214005E84637694003386A7408546F1BFE39884FC86
S214005E946395C600B387C500C5BF8506AE87E1B760
S214005EA405089305150063E30501328B33FA050BE9
S214005EB4B3856D016E855286EF300002014445C1FC
S214005EC433854B413375AA0A2AC4939ABB28B30474
S214005ED47A41338C4D01B30C4901330D404113050F
S214005EE4FAFF330BA900AA9D33857941637C8500AC
S214005EF433053901D685EF404032AA993385794176
S214005F046367851063717A030145B3858C006286E6
S214005F148346060003C705006399E6027D15050659
S214005F248505E397A4FE33058900B3058B006E86CA
S214005F34EA86F9CE0347060083C705008506FD15E5
S214005F447D16E308F7FE224519A03305A0402295E6
S214005F541304150033857941E36C85F865B7014C65
S214005F64939ABB28B38C6B410545330545412AC437
S214005F74130DF9FF9384FDFF33857941637385021E
S214005F8439A0014C2E9433857941637C8500330512
S214005F943901D685EF406028AA993385794163682C
S214005FA48506B3768A0B63F57603A245B6953385E4
S214005FB4DB403386DD00A296CA960347060083C7F5
S214005FC40600E310F7FC85057D150506850675F5C0
S214005FD43305890033584C0BB3058D00D2866371A4
